:100000000C94ED000C9415010C9415010C94150141
:100010000C9415010C9415010C9415010C94590DB8
:100020000C9415010C9415010C9415010C941501F8
:100030000C9415010C9415010C9415010C941501E8
:100040000C9420060C9415010C9414090C94460988
:100050000C9415010C9415010C9415010C941501C8
:100060000C9415010C94150104021A023402460284
:100070005402620268026E02700282029802BE029C
:10008000BE02BE02BE02BE02BE02BE02BE02BE0270
:10009000A2020909403078003A0909000909230041
:1000A00053746F7265642074696D696E67732C2078
:1000B000733A0A007365636F6E6473006D6D3A7313
:1000C000730043757272656E742074696D65206D7E
:1000D0006F646520233A09090043757272656E7476
:1000E0002074696D652076616C756520233A090975
:1000F000004E756D626572206F662076616C756565
:10010000732073746F7265643A09004E756D626591
:1001100072206F662072756E733A09090900446592
:1001200076696365207369676E61747572653A09F3
:100130000900436F756E742D446F776E2074696D7E
:10014000657220666F7220616E797468696E670AE5
:10015000090920656A7320402054784E782C20329B
:100160003031360A005468652074696D6520697302
:10017000207469636B696E673A200A090000000009
:100180000800020100000304070000000000000056
:100190000001020408102040800102040810200120
:1001A00002040810200404040404040404020202EB
:1001B00002020203030303030300000000230026DE
:1001C00000290000000000250028002B000000008E
:1001D00000240027002A0002760911241FBECFEF59
:1001E000D8E0DEBFCDBF11E0A0E0B1E0E2E1FFE189
:1001F00002C005900D92A834B107D9F722E0A8E417
:10020000B1E001C01D92AF37B207E1F711E0CAEDCE
:10021000D1E004C02297FE010E94530FC83DD107D0
:10022000C9F70E94B60D0C94870F0C940000EF9252
:10023000FF920F931F93CF93DF931F92CDB7DEB73B
:1002400006EA11E0E12CF12CF80161918F01C70160
:1002500069830E94710F6981681719F0C7010E94B4
:10026000790FFFEFEF1AFF0A82E1E816F10461F758
:1002700086EA91E00F90DF91CF911F910F91FF904F
:10028000EF9008950F931F930E946A060091BA01A0
:100290001091BB012091BC013091BD016017710725
:1002A0008207930709F44BC08AE00E94A60721E069
:1002B00030E0892B11F020E030E0309303012093EF
:1002C0000201809100019091010141E050E000970E
:1002D00011F040E050E02417350769F44091B8016F
:1002E0005091B9011416150634F441505109509338
:1002F000B9014093B8012817390749F48091B80132
:100300009091B90101969093B9018093B8018091C1
:10031000B8019091B9010A9744F01092B901109276
:10032000B80110920301109202010E946A066093C4
:10033000BA017093BB018093BC019093BD01809181
:10034000020190910301892B09F440C02091B4016E
:100350003091B5012F5F3F4FA90160E070E08091BF
:10036000B0019091B101A091B201B091B301841795
:100370009507A607B70710F420E030E0C901A0E018
:10038000B0E08093B4019093B501A093B601B0930F
:10039000B701F901EE0FFF1FE45BFE4F80819181F1
:1003A0009093A1018093A0010E94170160E971E080
:1003B00080E090E00E9499061092030110920201E1
:1003C00081E090E090930101809300011F910F91D3
:1003D000089522E330E040E050E068EB71E08FE008
:1003E0000E94150B66E470E080E090E00E949906A0
:1003F0008FE00C94440D8531910508F0BFC0FC01DD
:10040000EC5CFF4F0C94510F61E082E00E9470079A
:1004100061E083E00E94700761E084E00E94700761
:1004200061E086E00E94700761E087E00E9470074B
:1004300061E015C060E082E00E94700761E083E047
:100440000E94700761E084E00E94700760E086E02F
:100450000E94700760E087E00E94700760E088E01B
:100460000E94700760E087C061E082E00E94700730
:1004700061E083E00E94700760E084E00E94700702
:1004800061E086E00E94700761E06DC061E082E09B
:100490000E94700761E083E00E94700761E084E0E1
:1004A0000E94700761E05BC060E082E00E9470071C
:1004B00061E083E00E94700761E084E00E947007C1
:1004C00060E02DC061E082E00E94700760E01FC024
:1004D00061E082E00E94700760E007C061E0ABCF9E
:1004E00061E082E00E94700761E083E00E94700793
:1004F00061E084E00E94700761E086E00E9470077E
:1005000061E011C061E082E00E94700761E083E079
:100510000E94700761E084E00E94700761E086E05D
:100520000E94700760E087E00E94700761E01FC0D2
:1005300060E082E00E94700760E083E00E94700744
:1005400060E081CF60E082E00E94700760E083E0BD
:100550000E94700760E084E00E94700760E086E01F
:100560000E94700760E087E00E94700760E088E00A
:100570000E94700761E089E00C9470070895AF92C3
:10058000BF92CF92DF92EF92FF920F931F93CF9380
:10059000DF935C010E946A066B017C01C3E0D0E03E
:1005A0000AE010E060E0C230D10569F0C330D10547
:1005B000C1F0C130D10511F080E101C081E10E949C
:1005C000700760E00AC082E10E9470072091AE01CE
:1005D0003091AF01232B39F061E085E00E94700774
:1005E00002C083E1F1CFC501B8010E94FC0E5B019E
:1005F0000E94FB0165E070E080E090E00E949906B7
:100600008AE090E00E94FB0161E080E10E947007B7
:1006100061E081E10E94700761E082E10E94700761
:1006200061E083E10E947007219708F0BBCF0E9430
:100630006A066C157D058E059F05C9F3DF91CF9184
:100640001F910F91FF90EF90DF90CF90BF90AF90F0
:1006500008954F925F926F927F92AF92BF92CF9226
:10066000DF92EF92FF920F931F93CF93DF9300D00F
:10067000CDB7DEB726E040E052EC61E070E08DECF3
:1006800091E00E94B20865E671E08DEC91E00E9475
:10069000F70962E371E08DEC91E00E94250A36EAE9
:1006A000E32E31E0F32E00E010E0C8010E94710F4C
:1006B000F70181937F010F5F1F4F02311105A9F7E9
:1006C0006EE171E08DEC91E00E94F7094091AA0182
:1006D0005091AB016091AC017091AD0120E130E02F
:1006E0008DEC91E00E94030B6BE071E08DEC91E0EA
:1006F0000E94F7094091A6015091A7016091A801BD
:100700007091A9012AE030E08DEC91E00E94030B8A
:1007100061EF70E08DEC91E00E94F7094091B0012B
:100720005091B1016091B2017091B3012AE030E0C3
:100730008DEC91E00E94030B69ED70E08DEC91E08F
:100740000E94F7094091B4015091B5016091B60142
:100750007091B7012AE030E08DEC91E00E94030B2C
:1007600062EC70E08DEC91E00E94F7098091AE019F
:100770009091AF01892B19F06CEB70E002C064EB33
:1007800070E08DEC91E00E94250A8091A601909185
:10079000A701A091A801B091A9010196A11DB11DC9
:1007A0008093A6019093A701A093A801B093A901FB
:1007B0000E94170160EA70E08DEC91E00E94F70959
:1007C0002CE4E22E21E0F22E412C512C320102E1E8
:1007D00010E062018091B0019091B101A091B2014D
:1007E000B091B301481659066A067B0608F048C066
:1007F000C8010E94710F8983C80101960E94710F80
:100800008A8389819A818A3922E09207B1F157015E
:10081000F701819391937F016CE970E08DEC91E099
:100820000E94F7094AE050E0B6018DEC91E00E9489
:10083000D00A68E970E08DEC91E00E94F709F501BB
:10084000608171814AE050E08DEC91E00E94FD0AE8
:1008500062E970E08DEC91E00E94F70940E150E020
:10086000B8018DEC91E00E94D80A0E5F1F4FFFEF98
:100870004F1A5F0A6F0A7F0AACCF80E090E0C7CFC3
:10088000E091B401F091B501EE0FFF1FE45BFE4F64
:10089000808191819093A1018093A00161E08FE01C
:1008A0000E94370761E08DE00E94370761E08EE02B
:1008B0000E94370762E08CE00E94370762E08BE01D
:1008C0000E94370762E08AE00E94370760E08FE00D
:1008D0000E94700761E08CE00E94700768EE73E090
:1008E00080E090E00E94990661E082E00E94370774
:1008F00061E083E00E94370761E084E00E943707EF
:1009000061E086E00E94370761E087E00E943707D8
:1009100061E088E00E94370761E089E00E943707C4
:1009200061E085E00E94370761E080E10E943707BF
:1009300061E081E10E94370761E082E10E943707B0
:1009400061E083E10F900F90DF91CF911F910F91A4
:10095000FF90EF90DF90CF90BF90AF907F906F901F
:100960005F904F900C943707682F8EE00C947007BF
:10097000CF93DF938091BE019091BF01892B09F441
:100980005CC08BE00E94A60721E030E0892B11F0CB
:1009900020E030E03093C1012093C001232B09F403
:1009A0007BC080E090E00E94B4041092BF011092DE
:1009B000BE018091C0019091C101892B29F521963A
:1009C000C536D10568F01092C3011092C201109291
:1009D000BF011092BE0180E090E00E94B404E9CF14
:1009E0006AE070E080E090E00E9499068BE00E944F
:1009F000A60721E030E0892B11F020E030E03093B1
:100A0000C1012093C001D5CF8CE00E94A60721E050
:100A100030E0892B11F020E030E03093C3012093C7
:100A2000C201232BC9F181E090E09093BF01809334
:100A3000BE01DF91CF910C94B4048CE00E94A60714
:100A400021E030E0892B11F020E030E03093C30149
:100A50002093C201232BE1F00E946A0660934801B3
:100A60007093490180934A0190934B016093A201D6
:100A70007093A3018093A4019093A50181E090E07D
:100A80000E94B40481E090E09093BF018093BE0186
:100A9000DF91CF910C944201DF91CF910895AF92F5
:100AA000BF92CF92DF92EF92FF920F931F93CF935B
:100AB000DF93C6E0D1E006E111E048EEA42E43E06A
:100AC000B42E69917991C5010E94FC0E6B01F80169
:100AD000619171918F01EE24D7FCE094FE2CA70167
:100AE00096018FE00E94150BC701B6010E94F90D17
:100AF0002DEC3CEC4CE85FE30E94850E0E94C60D95
:100B0000882777FD8095982F0E9499068FE00E9494
:100B1000440DF1E0C631DF07A1F6DF91CF911F91BF
:100B20000F91FF90EF90DF90CF90BF90AF9008951E
:100B30008091BE019091BF01892B09F45CC0809126
:100B4000040190910501892B11F00E94E9010E9496
:100B50006A062091A2013091A301AB01421B530B05
:100B60009A01293E3340C8F02091A0013091A101A3
:100B7000215031093093A1012093A00121E030E000
:100B800030930501209304016093A2017093A301A7
:100B90008093A4019093A50104C0109205011092C6
:100BA00004018091A0019091A101892B21F561E0C0
:100BB0008DE00E94700780E090E00E94B4040E94E3
:100BC0004F051092C3011092C2011092BF01109202
:100BD000BE011092C1011092C001E091B401F091E8
:100BE000B501EE0FFF1FE45BFE4F80819181909372
:100BF000A1018093A001089561E08DE00E9470073B
:100C00000E94B80460E08DE00E9470070E94980581
:100C10002091AE013091AF018091A0019091A1018E
:100C2000232B61F06CE370E00E94E80E44E6469FDF
:100C30009001479F300D1124820F931F0C94BF0227
:100C40001F920F920FB60F9211242F933F938F9301
:100C50009F93AF93BF938091C5019091C601A091DE
:100C6000C701B091C8013091C40123E0230F2D3793
:100C700020F40196A11DB11D05C026E8230F0296A0
:100C8000A11DB11D2093C4018093C5019093C6019D
:100C9000A093C701B093C8018091C9019091CA0186
:100CA000A091CB01B091CC010196A11DB11D809303
:100CB000C9019093CA01A093CB01B093CC01BF911D
:100CC000AF919F918F913F912F910F900FBE0F90F9
:100CD0001F9018952FB7F8946091C5017091C601C7
:100CE0008091C7019091C8012FBF08953FB7F89434
:100CF0008091C9019091CA01A091CB01B091CC0122
:100D000026B5A89B05C02F3F19F00196A11DB11D66
:100D10003FBF6627782F892F9A2F620F711D811D83
:100D2000911D42E0660F771F881F991F4A95D1F7E2
:100D300008958F929F92AF92BF92CF92DF92EF92DF
:100D4000FF926B017C010E9476064B015C01C1148D
:100D5000D104E104F104F1F00E94C50D0E94760671
:100D6000681979098A099B09683E734081059105D4
:100D700070F321E0C21AD108E108F10888EE880E6C
:100D800083E0981EA11CB11CC114D104E104F1043C
:100D900029F7DDCFFF90EF90DF90CF90BF90AF901D
:100DA0009F908F900895789484B5826084BD84B5B7
:100DB000816084BD85B5826085BD85B5816085BD56
:100DC000EEE6F0E0808181608083E1E8F0E010826F
:100DD000808182608083808181608083E0E8F0E0B0
:100DE000808181608083E1EBF0E08081846080839A
:100DF000E0EBF0E0808181608083EAE7F0E08081D1
:100E00008460808380818260808380818160808330
:100E10008081806880831092C1000895833081F0C2
:100E200028F4813099F08230A1F008958730A9F03C
:100E30008830B9F08430D1F4809180008F7D03C078
:100E4000809180008F7780938000089584B58F779C
:100E500002C084B58F7D84BD08958091B0008F77E6
:100E600003C08091B0008F7D8093B0000895CF9330
:100E7000DF9390E0FC01EF56FE4F2491FC01EB550F
:100E8000FE4F8491882349F190E0880F991FFC015F
:100E9000E353FE4FA591B4918D539E4FFC01C59134
:100EA000D4919FB7611108C0F8948C91209582234A
:100EB0008C93888182230AC0623051F4F8948C911B
:100EC000322F309583238C938881822B888304C0B2
:100ED000F8948C91822B8C939FBFDF91CF910895D2
:100EE0000F931F93CF93DF931F92CDB7DEB7282FB9
:100EF00030E0F901E358FE4F8491F901EF56FE4FBF
:100F00001491F901EB55FE4F04910023C9F0882399
:100F100021F069830E940E076981E02FF0E0EE0F57
:100F2000FF1FED53FE4FA591B4919FB7F8948C919C
:100F3000611103C01095812301C0812B8C939FBF49
:100F40000F90DF91CF911F910F910895CF93DF9371
:100F5000282F30E0F901E358FE4F8491F901EF5654
:100F6000FE4FD491F901EB55FE4FC491CC2391F083
:100F700081110E940E07EC2FF0E0EE0FFF1FE754E7
:100F8000FE4FA591B4912C912D2381E090E021F4A6
:100F900080E002C080E090E0DF91CF910895FC01F5
:100FA000818D228D90E0805C9F4F821B91098F7311
:100FB00099270895FC01918D828D981731F0828DCB
:100FC000E80FF11D858D90E008958FEF9FEF089554
:100FD000FC01918D828D981761F0828DDF01A80F41
:100FE000B11D5D968C91928D9F5F9F73928F90E063
:100FF00008958FEF9FEF08958CE699E0892B49F0D3
:1010000080E090E0892B29F00E946C0981110C94FA
:1010100000000895FC01848DDF01A80FB11DA35AC3
:10102000BF4F2C91848D90E001968F739927848F08
:10103000A689B7892C93A089B1898C9180648C93FF
:10104000938D848D981306C00288F389E02D8081EA
:101050008F7D80830895CF93DF93EC01888D882363
:10106000C9F0EA89FB89808185FD05C0A889B98915
:101070008C9186FD0FC00FB607FCF5CF808185FFF0
:10108000F2CFA889B9898C9185FFEDCFCE010E945E
:101090000A08E7CFDF91CF910895CF92DF92FF92B8
:1010A0000F931F93CF93DF931F92CDB7DEB76C01E1
:1010B00081E0D60158968C9358975B969C915B97EC
:1010C0005C968C915C97981307C05096ED91FC91BB
:1010D0005197808185FD2EC0F601038D10E00F5FD2
:1010E0001F4F0F731127F02EF601848DF81211C0D7
:1010F0000FB607FCF9CFD6015096ED91FC915197B0
:10110000808185FFF1CFC60169830E940A08698149
:10111000EBCF838DE80FF11DE35AFF4F6083D601BB
:101120005B960C935B975296ED91FC91539780815F
:1011300080620CC0D6015696ED91FC915797608362
:101140005096ED91FC91519780818064808381E07D
:1011500090E00F90DF91CF911F910F91FF90DF9062
:10116000CF900895BF92CF92DF92EF92FF92CF93EC
:10117000DF93EC016A017B01B22EE889F98982E0F4
:101180008083411581EE580761057105A1F060E08B
:1011900079E08DE390E0A70196010E94100F2150A5
:1011A00031094109510956954795379527952115DC
:1011B00080E1380798F0E889F989108260E874E8DE
:1011C0008EE190E0A70196010E94100F2150310995
:1011D000410951095695479537952795EC85FD8529
:1011E0003083EE85FF852083188EEC89FD89B082DF
:1011F000EA89FB89808180618083EA89FB8980811B
:1012000088608083EA89FB89808180688083EA899D
:10121000FB8980818F7D8083DF91CF91FF90EF905C
:10122000DF90CF90BF9008951F920F920FB60F924C
:1012300011242F938F939F93EF93FF93E091DD0100
:10124000F091DE018081E091E301F091E40182FD03
:1012500012C090818091E6018F5F8F732091E7012A
:10126000821751F0E091E601F0E0E353FE4F958FD5
:101270008093E60101C08081FF91EF919F918F9152
:101280002F910F900FBE0F901F9018951F920F92E5
:101290000FB60F9211242F933F934F935F936F9349
:1012A0007F938F939F93AF93BF93EF93FF938DECB7
:1012B00091E00E940A08FF91EF91BF91AF919F9139
:1012C0008F917F916F915F914F913F912F910F90EF
:1012D0000FBE0F901F9018958DEC91E00E94CF07E4
:1012E00021E0892B09F420E0822F08951092D0018B
:1012F0001092CF0188EE93E0A0E0B0E08093D1019E
:101300009093D201A093D301B093D4018BE291E0EA
:101310009093CE018093CD0185EC90E09093DA011B
:101320008093D90184EC90E09093DC018093DB0101
:1013300080EC90E09093DE018093DD0181EC90E001
:101340009093E0018093DF0182EC90E09093E201C2
:101350008093E10186EC90E09093E4018093E301B7
:101360001092E6011092E7011092E8011092E90153
:101370000895CF92DF92EF92FF920F931F93CF9336
:10138000DF937C016A01EB0100E010E00C151D0504
:1013900071F06991D701ED91FC910190F081E02D00
:1013A000C7010995892B19F00F5F1F4FEFCFC801B7
:1013B000DF91CF911F910F91FF90EF90DF90CF9031
:1013C00008956115710581F0DB010D900020E9F7AA
:1013D000AD0141505109461B570BDC01ED91FC91C9
:1013E0000280F381E02D099480E090E00895EF926F
:1013F000FF920F931F93CF93DF938C017B01C0E08B
:10140000D0E0F701EC0FFD1F6491662359F0F8015D
:10141000A081B181ED91FC91C8010995892B11F052
:101420002196EFCFCE01DF91CF911F910F91FF90C9
:10143000EF900895DC01ED91FC910190F081E02D99
:10144000099467E371E00C94E1090F931F93CF9324
:10145000DF93EC010E94F7098C01CE010E94210A62
:10146000800F911FDF91CF911F910F9108958F925F
:101470009F92AF92BF92DF92EF92FF920F931F93D2
:10148000CF93DF93CDB7DEB7A1970FB6F894DEBF49
:101490000FBECDBF7C01F42FD52ECB0119A2223077
:1014A00008F42AE08E010F5D1F4F822E912CA12C93
:1014B000B12C6F2F7D2DA50194010E94100FF22FEA
:1014C000D32ECA01015011096A3014F4E0E301C0BF
:1014D000E7E3E60FD801EC93232B242B252B49F7C8
:1014E000B801C7010E94E109A1960FB6F894DEBFCA
:1014F0000FBECDBFDF91CF911F910F91FF90EF9065
:10150000DF90BF90AF909F908F900895CF92DF9221
:10151000EF92FF920F931F93CF93DF93EC016A0139
:101520007B012115310579F4E881F9810190F08181
:10153000E02D642FDF91CF911F910F91FF90EF90DD
:10154000DF90CF9009942A303105E9F477FF1AC073
:101550006DE20E941A0A8C0144275527BA014C19E2
:101560005D096E097F092AE0CE010E94370A800FCB
:10157000911FDF91CF911F910F91FF90EF90DF901E
:10158000CF9008952AE0B701A601CE01DF91CF9157
:101590001F910F91FF90EF90DF90CF900C94370A3E
:1015A0009A01AB01662757FD6095762F0C94860A49
:1015B0000F931F93CF93DF93EC019A01AB01662742
:1015C00057FD6095762F0E94860A8C01CE010E94FD
:1015D000210A800F911FDF91CF911F910F910895E4
:1015E0002115310541F4DC01ED91FC910190F08170
:1015F000E02D642F09940C94370A9A01AB0160E046
:1016000070E00C94F00A0F931F93CF93DF93EC01DB
:101610000E94F00A8C01CE010E94210A800F911FC6
:10162000DF91CF911F910F9108953F924F925F925A
:101630006F927F928F929F92AF92BF92CF92DF92E2
:10164000EF92FF920F931F93CF93DF9300D000D0C0
:10165000CDB7DEB78B0129013A0190912601981789
:1016600021F09F3F09F0DAC104C0E7EDF1E03490CA
:1016700081C080932601E7EDF1E0E491EF3F09F4AA
:10168000CDC1E13031F1E23009F44BC0E11171C05C
:1016900014BC15BC94B5926094BD95B5916095BD90
:1016A000282F30E0F901EB55FE4FE491F0E0EE0F0A
:1016B000FF1FED53FE4F4591549150937A02409392
:1016C0007902F901EF56FE4F249120937802312CD4
:1016D00053C0109280001092810090918100986018
:1016E0009093810090918100916090938100282FC8
:1016F00030E0F901EB55FE4FE491F0E0EE0FFF1FF3
:10170000ED53FE4F459154915093730240937202F2
:10171000F901EF56FE4F2491209371023324339444
:101720002BC01092B0001092B1009091B000926066
:101730009093B0009091B10091609093B100282FE8
:1017400030E0F901EB55FE4FE491F0E0EE0FFF1FA2
:10175000ED53FE4F4591549150936C0240936B02B0
:10176000F901EF56FE4F249120936A0252E0352E84
:1017700003C03E2E37FC52C161E00E94370748018A
:10178000A12CB12C832D8D7F09F0C7C060E072E1E0
:101790008AE790E0A50194010E94320F29833A83E1
:1017A0004B835C8369017A0181E0C81AD108E108A2
:1017B000F1089FEFC916D104E104F10409F008F41F
:1017C0009AC060E472E48FE090E0A50194010E9469
:1017D000320F69017A01E1E0CE1AD108E108F1087F
:1017E000F2E03F1219C08FEFC816D104E104F104F2
:1017F00009F008F48AC060E970ED83E090E0A5018B
:1018000094010E94320F69017A0191E0C91AD1084E
:10181000E108F10883E001C082E0EFEFCE16D104C9
:10182000E104F10409F008F467C068E478EE81E0AF
:1018300090E0A50194010E94320F69017A01F1E064
:10184000CF1AD108E108F1083320E1F082E0381224
:101850001BC09FEFC916D104E104F10409F008F49C
:10186000DBC064E274EF80E090E0A50194010E9487
:10187000320F69017A01E1E0CE1AD108E108F108DE
:1018800085E003C083E001C084E0FFEFCF16D10400
:10189000E104F10489F180F162E17AE780E090E00F
:1018A000A50194010E94320F69017A0181E0C81AF2
:1018B000D108E108F108311002C084E001C086E0DF
:1018C0009FEFC916D104E104F104B1F0A8F0C9807A
:1018D000DA80EB80FC809AE0F594E794D794C79483
:1018E0009A95D1F7E1E0CE1AD108E108F10833204A
:1018F00031F087E00BC081E0332011F007C085E0B4
:1019000095B5987F982B95BD38C082E09091B10035
:10191000987F982B9093B10030C060E072E18AE725
:1019200090E0A50194010E94320F69017A01F1E073
:10193000CF1AD108E108F108C114D10481E0E8060A
:10194000F10488F068E478EE81E090E0A50194016C
:101950000E94320F69017A0191E0C91AD108E108A9
:10196000F10893E001C091E0E1E03E1206C08091F1
:101970008100887F892B8093810041145104610488
:10198000710471F0D801AA0FBB1FA30192010E943C
:10199000570F28EE33E040E050E00E94100F03C0E4
:1019A0002FEF3FEFA901F1E03F16A1F082E03816DA
:1019B00019F1311033C0C7BC20937B0230937C02F5
:1019C00040937D0250937E0280916E0082608093EE
:1019D0006E0024C0D0928900C092880020937402C7
:1019E00030937502409376025093770280916F0096
:1019F000826080936F0012C0C092B30020936D028A
:101A000030936E0240936F02509370028091700089
:101A100082608093700002C084E078CF0F900F90B6
:101A20000F900F90DF91CF911F910F91FF90EF904A
:101A3000DF90CF90BF90AF909F908F907F906F90EE
:101A40005F904F903F900895813039F018F08230C8
:101A500051F0089510926E00089580916F008D7F6F
:101A600080936F000895809170008D7F8093700047
:101A700081E08093B0008091B100887F8460809382
:101A8000B1001092B3000895CF93C82F8091260122
:101A90008C1307C0E7EDF1E084919FEF909326014E
:101AA00001C08FEF0E94240D60E08C2FCF910C9429
:101AB00070071F920F920FB60F9211242F933F932E
:101AC0004F935F936F937F938F939F93AF93BF9346
:101AD000EF93FF9380916D0290916E02A0916F023F
:101AE000B0917002892B8A2B8B2B51F190916A0255
:101AF000E0916B02F0916C02808189278083809154
:101B00006D0290916E02A0916F02B0917002181652
:101B100019061A061B06C4F480916D0290916E029C
:101B2000A0916F02B09170020197A109B109809351
:101B30006D0290936E02A0936F02B093700204C086
:101B4000809126010E94440DFF91EF91BF91AF91CA
:101B50009F918F917F916F915F914F913F912F91C5
:101B60000F900FBE0F901F90189508950E94D306F6
:101B70000E94B50D0E942903CCEFD7E00E94FC051E
:101B80002097E1F30E94FC07F9CF089504D06894F0
:101B9000B111B5C0089598D088F09F5790F0B92F33
:101BA0009927B751A0F0D1F0660F771F881F991FB2
:101BB0001AF0BA95C9F712C0B13081F09FD0B1E0E8
:101BC00008959CC0672F782F8827B85F39F0B93FF8
:101BD000CCF3869577956795B395D9F73EF49095B4
:101BE0008095709561957F4F8F4F9F4F0895E89432
:101BF00009C097FB3EF490958095709561957F4F55
:101C00008F4F9F4F9923A9F0F92F96E9BB27939502
:101C1000F695879577956795B795F111F8CFFAF412
:101C2000BB0F11F460FF1BC06F5F7F4F8F4F9F4F43
:101C300016C0882311F096E911C0772321F09EE8A1
:101C4000872F762F05C0662371F096E8862F70E007
:101C500060E02AF09A95660F771F881FDAF7880FE1
:101C60009695879597F9089597F99F6780E870E0B2
:101C700060E008959FEF80EC089500240A94161602
:101C8000170618060906089500240A94121613066A
:101C9000140605060895092E0394000C11F48823F8
:101CA00052F0BB0F40F4BF2B11F460FF04C06F5F14
:101CB0007F4F8F4F9F4F089557FD9058440F551FEA
:101CC00059F05F3F71F04795880F97FB991F61F0BE
:101CD0009F3F79F087950895121613061406551F35
:101CE000F2CF4695F1DF08C0161617061806991FA1
:101CF000F1CF86957105610508940895E894BB2796
:101D000066277727CB0197F908950BD0C4CFB5DFAD
:101D100028F0BADF18F0952309F0A6CFABCF112435
:101D2000EECFCADFA0F3959FD1F3950F50E0551F7A
:101D3000629FF001729FBB27F00DB11D639FAA2720
:101D4000F00DB11DAA1F649F6627B00DA11D661F6F
:101D5000829F2227B00DA11D621F739FB00DA11D90
:101D6000621F839FA00D611D221F749F3327A00D4A
:101D7000611D231F849F600D211D822F762F6A2FE6
:101D800011249F5750408AF0E1F088234AF0EE0F6B
:101D9000FF1FBB1F661F771F881F91505040A9F778
:101DA0009E3F510570F060CFAACF5F3FECF3983EA5
:101DB000DCF3869577956795B795F795E7959F5FDF
:101DC000C1F7FE2B880F911D9695879597F9089579
:101DD000AA1BBB1B51E107C0AA1FBB1FA617B70751
:101DE00010F0A61BB70B881F991F5A95A9F780956D
:101DF0009095BC01CD01089597FB072E16F4009431
:101E000007D077FD09D00E94E80E07FC05D03EF40C
:101E1000909581959F4F0895709561957F4F089596
:101E2000A1E21A2EAA1BBB1BFD010DC0AA1FBB1FDE
:101E3000EE1FFF1FA217B307E407F50720F0A21B50
:101E4000B30BE40BF50B661F771F881F991F1A94BD
:101E500069F760957095809590959B01AC01BD01E7
:101E6000CF010895052E97FB1EF400940E94490FA0
:101E700057FD07D00E94100F07FC03D04EF40C94BE
:101E8000490F50954095309521953F4F4F4F5F4FEB
:101E9000089590958095709561957F4F8F4F9F4FD6
:101EA0000895EE0FFF1F0590F491E02D09940E9414
:101EB000620FA59F900DB49F900DA49F800D911D62
:101EC00011240895A29FB001B39FC001A39F700D7C
:101ED000811D1124911DB29F700D811D1124911D32
:101EE0000895F999FECF92BD81BDF89A992780B5E2
:101EF0000895262FF999FECF1FBA92BD81BD20BD4E
:101F00000FB6F894FA9AF99A0FBE01960895F894CC
:021F1000FFCF01
:101F120001000100010004000800080004000400A0
:101F22000400040004000B0288018801B801880142
:101F32000000EE010B02FF000000004D08B909CFBE
:101F420007E807DA072B080D0A006E616E00696E5A
:081F520066006F7666002E00A8
:107800000C94343C0C94513C0C94513C0C94513CE1
:107810000C94513C0C94513C0C94513C0C94513CB4
:107820000C94513C0C94513C0C94513C0C94513CA4
:107830000C94513C0C94513C0C94513C0C94513C94
:107840000C94513C0C94513C0C94513C0C94513C84
:107850000C94513C0C94513C0C94513C0C94513C74
:107860000C94513C0C94513C11241FBECFEFD8E036
:10787000DEBFCDBF11E0A0E0B1E0ECE9FFE702C060
:1078800005900D92A230B107D9F712E0A2E0B1E065
:1078900001C01D92AD30B107E1F70E942D3D0C945F
:1078A000CC3F0C94003C982F959595959595959582
:1078B000905D8F708A307CF0282F295A8091C0000B
:1078C00085FFFCCF9093C6008091C00085FFFCCF60
:1078D0002093C6000895282F205DF0CF982F809127
:1078E000C00085FFFCCF9093C6000895EF92FF92F1
:1078F0000F931F93EE24FF2487018091C00087FD22
:1079000017C00894E11CF11C011D111D81E4E8164B
:1079100082E4F8068FE0080780E0180770F3E09132
:107920000401F091050109958091C00087FFE9CF1E
:107930008091C6001F910F91FF90EF9008950E94D3
:10794000763C982F8091C00085FFFCCF9093C600B5
:1079500091362CF490330CF09053892F089597555D
:10796000892F08951F930E949F3C182F0E949F3CCF
:107970001295107F810F1F9108951F93182F882350
:1079800021F00E94763C1150E1F71F9108951F935A
:10799000182F0E94763C803249F0809103018F5F5E
:1079A000809303018530C1F01F9108958091C0003C
:1079B00085FFFCCF84E18093C6008091C00085FFE5
:1079C000FCCF1093C6008091C00085FFFCCF80E102
:1079D0008093C6001F910895E0910401F091050184
:1079E00009951F9108950E94763C803241F0809164
:1079F00003018F5F80930301853081F008958091AA
:107A0000C00085FFFCCF84E18093C6008091C00058
:107A100085FFFCCF80E18093C6000895E0910401CA
:107A2000F09105010995089540E951E08823A1F0FE
:107A30002D9A28EE33E0FA013197F1F721503040CA
:107A4000D1F72D9828EE33E0FA013197F1F7215064
:107A50003040D1F7815061F708953F924F925F9285
:107A60006F927F928F929F92AF92BF92CF92DF924E
:107A7000EF92FF920F931F93CF93DF93000080E16B
:107A80008093C4001092C50088E18093C10086E015
:107A90008093C2005098589A259A81E00E94143D24
:107AA00024E1F22E9EE1E92E85E9D82E0FE0C02ECA
:107AB00010E1B12EAA24A394B1E49B2EA6E58A2E50
:107AC000F2E57F2EE0E26E2E79E4572E63E5462E36
:107AD00050E5352E0E94763C8033B1F18133B9F107
:107AE000803409F46FC0813409F476C0823409F41B
:107AF00085C0853409F488C0803531F1823521F1A3
:107B0000813511F1853509F485C0863509F48DC0BC
:107B1000843609F496C0843709F403C1853709F423
:107B200072C1863709F466C0809103018F5F80932C
:107B30000301853079F6E0910401F0910501099582
:107B40000E94763C803351F60E94F33CC3CF0E94E2
:107B5000763C803249F78091C00085FFFCCFF092DF
:107B6000C6008091C00085FFFCCF9092C600809136
:107B7000C00085FFFCCF8092C6008091C00085FFC9
:107B8000FCCF7092C6008091C00085FFFCCF609250
:107B9000C6008091C00085FFFCCF5092C600809146
:107BA000C00085FFFCCF4092C6008091C00085FFD9
:107BB000FCCF3092C6008091C00085FFFCCFB09210
:107BC000C60088CF0E94763C863808F4BDCF0E945C
:107BD000763C0E94F33C7ECF0E94763C803809F4CC
:107BE0009CC0813809F40BC1823809F43CC1883942
:107BF00009F48FC080E00E94C73C6CCF84E10E94F2
:107C0000BD3C0E94F33C66CF85E00E94BD3C0E94D3
:107C1000F33C60CF0E94763C809306010E94763C44
:107C2000809307010E94F33C55CF0E94763C80333D
:107C300009F41DC183E00E94BD3C80E00E94C73C66
:107C400049CF0E94763C809309020E94763C809343
:107C5000080280910C028E7F80930C020E94763C79
:107C6000853409F415C18091080290910902892B8D
:107C700089F000E010E00E94763CF801E85FFE4FDA
:107C800080830F5F1F4F80910802909109020817AF
:107C9000190788F30E94763C803209F045CF809125
:107CA0000C0280FF01C16091060170910701660F0F
:107CB000771F7093070160930601A0910802B091AD
:107CC00009021097C9F0E8E0F1E09B01AD014E0F09
:107CD0005F1FF999FECF32BD21BD819180BDFA9A17
:107CE000F99A2F5F3F4FE417F50799F76A0F7B1F4B
:107CF00070930701609306018091C00085FFFCCF5F
:107D0000F092C6008091C00085FFFCCFB092C60003
:107D1000E1CE83E00E94C73CDDCE82E00E94C73CFA
:107D2000D9CE0E94763C809309020E94763C8093D3
:107D300008028091060190910701880F991F909386
:107D40000701809306010E94763C853409F4A6C0A1
:107D500080910C028E7F80930C020E94763C8032D0
:107D600009F0B8CE8091C00085FFFCCFF092C6002C
:107D7000609108027091090261157105B9F140E046
:107D800050E080910C02A82FA170B82FB27011C0E2
:107D9000BB2309F45CC0E0910601F0910701319624
:107DA000F0930701E09306014F5F5F4F46175707B7
:107DB000E8F4AA2369F3F999FECF209106013091E6
:107DC000070132BD21BDF89A90B58091C00085FFB2
:107DD000FCCF9093C6002F5F3F4F30930701209355
:107DE00006014F5F5F4F4617570718F38091C00099
:107DF00085FDE5CE8091C00085FFF8CFE0CE81E023
:107E00000E94C73C67CE0E94763C803209F08CCE3F
:107E10008091C00085FFFCCFF092C6008091C00029
:107E200085FFFCCFE092C6008091C00085FFFCCFAB
:107E3000D092C6008091C00085FFFCCFC092C600E2
:107E40008091C00085FFFCCFB092C60043CEE09188
:107E50000601F091070194918091C00085FFFCCF4D
:107E60009093C6009CCF80E10E94C73C33CE0E9415
:107E7000763C0E94763C182F0E94763C112309F430
:107E800083C0113009F484C08FE00E94C73C22CE29
:107E900080910C02816080930C02E5CE80910C02EF
:107EA000816080930C0259CF809107018823880F4D
:107EB000880B8A2180930B02809106019091070123
:107EC000880F991F90930701809306018091080203
:107ED00080FF09C080910802909109020196909359
:107EE000090280930802F894F999FECF1127E091D6
:107EF0000601F0910701C8E0D1E08091080290915D
:107F00000902103091F40091570001700130D9F34B
:107F100003E000935700E89500915700017001308D
:107F2000D9F301E100935700E89509901990009169
:107F3000570001700130D9F301E000935700E89534
:107F40001395103498F011270091570001700130FB
:107F5000D9F305E000935700E895009157000170B0
:107F60000130D9F301E100935700E895329602976A
:107F700009F0C7CF103011F00296E5CF112480919F
:107F8000C00085FFB9CEBCCE8EE10E94C73CA2CD19
:0C7F900085E90E94C73C9ECDF894FFCF0D
:027F9C00800063
:040000030000780081
:00000001FF
